:020000040000fa
:080000000002040000000000f2
:020000040000fa
:1000080004c2000008c200000cc2000010c20000b8
:1000180014c2000000c2000018c2000000c20000a4
:100028001cc2000020c2000024c2000028c2000038
:100038002cc2000000c2000030c2000034c2000020
:1000480038c200003cc2000040c2000044c20000a8
:1000580048c200004cc2000050c2000054c2000058
:1000680058c200005cc2000060c2000064c2000008
:1000780068c200006cc2000000c2000070c200002c
:10008800d605000074c2000078c200007cc20000df
:1000980080c2000084c2000088c200008cc2000038
:1000a80000c2000000c2000000c2000090c20000b0
:1000b80094c2000098c200009cc2000000c2000068
:1000c800a0c20000a4c2000000c20000a8c2000034
:1000d800acc20000b0c20000b4c20000b8c2000048
:1000e800bcc20000c0c20000c4c20000c8c20000f8
:1000f800ccc2000000c20000d0c2000000c2000054
:10010800d4c20000d8c20000dcc20000e0c2000077
:10011800e4c20000e8c20000ecc20000f0c2000027
:10012800f4c20000f8c2000000c20000fcc20000d7
:1001380000c3000004c3000008c300000cc3000093
:1001480010c3000014c3000018c300001cc3000043
:1001580020c3000024c3000028c300002cc30000f3
:1001680000c2000030c3000034c3000038c30000e0
:100178003cc3000040c3000044c3000048c3000063
:100188004cc3000050c3000054c3000058c3000013
:100198005cc3000060c3000064c3000068c30000c3
:1001a8006cc3000070c3000074c3000078c3000073
:1001b8007cc3000080c3000084c3000088c3000023
:1001c8008cc3000090c3000094c3000098c30000d3
:1001d8009cc30000a0c30000a4c30000a8c3000083
:1001e800acc30000b0c30000b4c30000b8c3000033
:1001f800bcc30000c0c30000c4c30000c8c30000e3
:10020800ccc30000d0c30000d4c30000d8c3000092
:10021800dcc30000e0c30000e4c30000e8c3000042
:10022800ecc3000000c2000000c2000000c20000d1
:1002380000c2000000c2000000c2000000c20000ae
:1002480000c2000000c2000000c2000000c200009e
:1002580000c2000000c20000f0c30000f4c30000a8
:10026800f8c3000000c2000000c2000000c2000085
:1002780000c20000fcc3000000c4000000c200006f
:1002880004c4000008c4000000c2000000c200004e
:1002980000c2000000c2000000c2000000c200004e
:1002a80000c2000000c2000000c2000000c200003e
:1002b80000c2000000c2000000c2000000c200002e
:1002c80000c200000cc4000010c4000014c40000e8
:1002d80018c400001cc4000020c4000024c400008e
:1002e80028c400002cc4000030c4000034c400003e
:1002f80038c400003cc4000040c4000000c2000034
:1003080000c2000000c2000000c2000000c20000dd
:1003180000c2000044c4000048c400004cc40000ef
:1003280050c4000054c4000058c400005cc400005d
:1003380000c2000000c2000000c2000000c20000ad
:1003480000c2000000c2000000c2000000c200009d
:1003580000c2000000c2000000c2000000c200008d
:1003680000c2000000c2000000c2000000c200007d
:1003780000c2000000c2000000c2000000c200006d
:1003880000c2000000c2000000c2000000c200005d
:1003980000c2000000c2000000c2000000c200004d
:1003a80000c2000000c2000000c2000000c200003d
:1003b80000c2000000c2000000c2000000c200002d
:1003c80000c2000000c2000000c2000000c200001d
:1003d80000c2000000c2000000c2000000c200000d
:1003e80000c2000000c2000000c2000000c20000fd
:0803f80000c2000000c2000079
:020000040000fa
:100400002fa823000eff26000e0188000000000028
:10041000000020000000e000020032000001200087
:1004200020028800140007008d0207000000e00091
:1004300003003a002042290001002000020037009a
:100440000000200001002000810f70000100320038
:100450000f000700000020000000e0000200320052
:100460000000020000000000b49102000000000043
:100470000040da000000fe0000f320000000e00071
:1004800002003200002020009001880000000600d9
:10049000a1028800800478000000eb001f003700f4
:1004a000e284440054a0b4009905ba00e2844400f8
:1004b00054a0b4009906ba00e284440054a0b400e9
:1004c0000006eb00476fde00fd07b200ae018800ba
:1004d000636ce10003003a000ad801000000eb0061
:1004e0000e003700606ce10008003a00004deb00a0
:1004f0000a05e800020039003420ec000af0a000f0
:100500008b05e900f9ff3e00040037006168e10057
:10051000010032000086eb000b00070019c7ba008b
:100520001905ba000e04e00003003a000a00e000da
:10053000dbff3a0000000600fe07b200ae028800b2
:100540008a047800f5ff37000cd0a300e20f4d00bd
:100550001c003b0089027800354dba000a05e8000e
:10056000020039003420ec000af0a0008b05e900fd
:100570000f003200254dba000a05e80002003900dc
:100580003420ec000af0a0008b05e90008003200de
:100590000c00e0000600320015cdba000a05e800a4
:1005a000020039003420ec000af0a0008b05e900bd
:1005b0008984e80054a0b4000b00e000e2ff3a0098
:1005c000000006009902ba00055d78008b05e9007d
:1005d000f7ff3200c82ade00055d78008b05e900d0
:1005e000f3ff32000c00e000f1ff320019ddba0029
:1005f000eeff3700e07e0400000000002e7d0400c6
:1006000000000000467d0400000000005e7d040044
:1006100000000000767d0400000000008e7d0400d4
:1006200000000000a67d040000000000be7d040064
:1006300000000000c278040000000000f27804000e
:1006400000000000347904000000000092790400ea
:10065000000000000c7d0400000000005c7c040031
:1006600000000000da7a040000000000567b04005d
:1006700000000000c07c040000000000d87c0400e2
:1006800000000000f07c040000000000a0790400dd
:1006900000000000467a040000000000747c0400a2
:1006a000000000008c7c040000000000a47c04001a
:1006b00000000000747b0400000000003e7c040089
:1006c000000000001c7d040000000000347d0400d8
:1006d000000000004c7d040000000000647d040068
:1006e000000000007c7d040000000000947d0400f8
:1006f00000000000ac7d040000000000c47d040088
:10070000000000008c9a040000000000e29a04003f
:1007100000000000389b040000000000829b0400e1
:1007200000000000ba97040000000000b497040025
:1007300000000000ec9d0400000000001e99040071
:1007400000000000ea970400000000001898040070
:1007500000000000469804000000000052980400c9
:10076000000000005e98040000000000c497040030
:10077000000000008898040000000000de980400db
:1007800000000000fa98040000000000008f040040
:1007900000000000208f040000000000368f0400dd
:1007a00000000000548f0400000000006a8f040065
:1007b000000000007e8f0400000000009e8f0400f7
:1007c00000000000c08f040000000000c88f04007b
:1007d00000000000d08f040000000000f68f04002d
:1007e000000000000e900400000000008090040053
:1007f000000000009690040000000000b290040089
:100800000000000044910400000000002690040055
:1008100000000000de4e0400000000004a4d04000d
:1008200000000000204e040000000000bc51040045
:10083000000000003c520400000000002c4f0400a7
:1008400000000000d45204000000000064530400c3
:10085000000000008e54040000000000fa54040060
:1008600000000000945504000000000084560400bd
:100870000000000086570400000000007c580400bf
:10088000000000006a59040000000000e059040064
:1008900000000000d85b040000000000445c04007d
:1008a000000000005c680400000000001a6a0400f8
:1008b000000000000269040000000000a46a0400b7
:1008c00000000000d46a0400000000004c14040082
:1008d00000000000ba0e0400000000007a220400ac
:1008e00000000000ca22040000000000e62104000d
:1008f000000000000000040000000000ba0e040028
:10090000000000003600f800809fbe00829fbe00fd
:10091000849fbe00869fbe000000fa00e12e80008a
:1009200000002400008060000000e00006003200ab
:10093000d08080000000e00002003200d080800003
:1009400000000100ddc5a9000328a9000080fa000d
:100950004f03be004f02be004f01be004f00be005d
:100960003600f900004006003600f800809fbe0007
:10097000829fbe00849fbe00869fbe000000fa00da
:10098000c068a90020002000e94d07000080fa009f
:100990004f03be004f02be004f01be004f00be001d
:1009a0003600f900004006003600f800809fbe00c7
:1009b000829fbe00849fbe00869fbe000000fa009a
:1009c000c608a90070002000d94d07000080fa0079
:1009d0004f03be004f02be004f01be004f00be00dd
:1009e0003600f900004006003600f800809fbe0087
:1009f000829fbe00849fbe00869fbe000000fa005a
:100a000020468000700060000000e000030032001b
:100a1000c488a900a0002000c54d07002146800021
:100a200000022000008060000000e00003003200af
:100a3000c4a8a90090002000bd4d070021468000f9
:100a400000102000008060000000e0000300320081
:100a5000c508a900c0002000b54d07002146800050
:100a600000202000008060000000e0000300320051
:100a7000c528a900d0002000ad4d07002046800009
:100a8000610060000000e00003003200c408a9001b
:100a9000b0002000a64d0700ffff37003600f80029
:100aa000809fbe00829fbe00849fbe00869fbe00c6
:100ab0000000fa00c028a9000000eb009c4d0700d0
:100ac0000080fa004f03be004f02be004f01be007f
:100ad0004f00be003600f900004006003600f80066
:100ae000809fbe00829fbe00849fbe00869fbe0086
:100af0000000fa00c088a900300020008c4d0700db
:100b00000080fa004f03be004f02be004f01be003e
:100b10004f00be003600f900004006003600f80025
:100b2000809fbe00829fbe00849fbe00869fbe0045
:100b30000000fa00854d0700c048a9001000200001
:100b40007b4d07000080fa004f03be004f02be003d
:100b50004f01be004f00be003600f9000040060005
:100b60003600f800809fbe00829fbe00849fbe00ba
:100b7000869fbe000000fa00608180000000e00057
:100b800002003200608180000000010005a8a90079
:100b90000080fa004f03be004f02be004f01be00ae
:100ba0004f00be003600f90000400600809fbe00e6
:100bb0000000fa0000828000118280006100400085
:100bc000e080480000828800118288000308a900a4
:100bd0000080fa004f00be00004006000000fa004e
:100be000dc25a90003e8a900de25a90023e8a90067
:100bf0001c06a9000080fa00004006000040da0050
:100c00000000fe003802e20004003d003d42ab005f
:100c1000020032003d02ab00feff32000040da006d
:100c2000feff37000a00fa000000e0003a003a0038
:100c3000f3d38100e18f510003003200e28f5100b5
:100c40000e003a0009003700802320000000e00079
:100c500001003a000040da003802e2000b003500e3
:100c60004022ef0039e2a8000800370000262000eb
:100c70000000e00001003a000040da006002e200fb
:100c8000020035006822ef0061e2a800020078004f
:100c90001d003700040a2000e18f51000b003a00cc
:100ca000030037000402e90002003a0003003700a5
:100cb000040a20003e22ab00faff3a00f411800043
:100cc000050037000402e900020032006622ab0092
:100cd000fcff3a00341380000410a20011840a00c3
:100ce000040000000400e00009003200e18f510020
:100cf00002003a00241280000100370064138000d3
:100d0000845878000000e9000000e000e1ff3a00ac
:100d1000000051000800370023002000b3bf9f00ef
:100d2000c0bf9f00d1bf9f00e2bf9f006a805700f5
:100d3000580f07006fb897000080fa000000060007
:100d40000a00fa0011002000b1bf9f00c0bf9f0041
:100d50006a805700510f07004fb897000080fa00d3
:100d600000000600889fbe008004780000d4810047
:100d70000000e00005003a000000eb000e00070054
:100d80000084eb000000e0000800350008d481007a
:100d90000900e000050032000900440006000700d9
:100da0000000e00001003d000084eb000800780036
:100db0004f04be0000000600800078000100e00043
:100dc00003003a000000200000d489000000050064
:100dd0000080eb0002002000828f500002003e00e5
:100de00001d489000000eb00000006000800fa00b2
:100df0001007980021079800320798000000eb00c8
:100e0000000f7800000000004c4407000004a2001e
:100e10000004e000fcff3a000a0037000000000078
:100e2000364407000004a2000004e000fcff3a0082
:100e30002e0090001e004000104078001e0fe800b9
:100e4000194407003e0090009e007800808f5000fb
:100e5000f2ff39001e0078000080fa000000060052
:100e6000000005006022b800060220000000d0004b
:100e70008180d2000482d2008582d2000000a000ce
:100e80000202520083825a00030031000202420033
:100e900083824a000000a1000603e900f3ff3a0044
:100ea000000006000000fa0068815700cfb89700e4
:100eb00020c9810010007800890307000080fa0033
:100ec00000000600a6010700ff0107003502070029
:100ed000b1020700d902070023040700ce03370040
:100ee0000000fa0068815700cfb8970020c9810040
:100ef000100078007a0307000080fa000000060066
:100f000097010700f0010700a3020700cb020700ca
:100f10002402070014040700bf0337000000fa0092
:100f200068815700cfb897007b0307000080fa0064
:100f3000000006008a010700e3010700960207008f
:100f4000be0207001702070007040700b2033700bc
:100f5000821f7800831f7800811f7800801f78002f
:100f6000e09d2300801f780010c7810010007800ea
:100f7000160007000000eb0003000700a5060700ad
:100f80000000050000000500881f78000000e00058
:100f90000a003a0030c981000004eb000000e000c4
:100fa0000300320030c98100f7ff07000004780019
:100fb000f3ff070000007400020037008000eb0020
:100fc000190e07004f047800000006000000fa0028
:100fd00068815700cfb897004e0107000080fa00e3
:100fe00000000600889fbe008a9fbe008c9fbe0046
:100ff0008e1f7800000578008104780002047800d4
:10100000830578000a07780089c6b9000900e00066
:1010100001003a000004eb004b6090008040e900c2
:1010200000c07000c0659800fb0890000b10900095
:10103000010050004240a9000d0034008c067800e9
:10104000800f560001003600800678000d01780000
:101050000a0078004b0007007b0890000d0040005c
:10106000f00d98000d0745000d05560017003700dc
:101070000c057800150037000b00780032060700d9
:10108000800078000000eb000100e00005003a005d
:101090009b1190000a0178008e0078000b00780008
:1010a000030001008000e800e18f500005003e00d1
:1010b0000a045600050009000984d80000047800dd
:1010c0000400370000055500000747000a00e00053
:1010d000e9ff3a00080078004f0778004f06be008d
:1010e0004f05be004f04be0000000600100078004f
:1010f0003eff3700889fbe008a1f78008104780079
:101100000204780089c5b9000900e00001003a0036
:101110000004eb000a0178008000780003007800ea
:10112000f50d0700800078008a8f50000300320020
:10113000050009008980d8000004780008007800c4
:101140004f0578004f04be00000006000100370084
:101150000201e9000200e0000500320030427800a0
:10116000b1417800834f5200f9ff3200010037008f
:10117000000005000480fb008381fb000300500099
:10118000000006008001780002003700b1597800a5
:101190000201e9000200e000fcff3a000000060046
:1011a0008001780081027800810f500041003200f8
:1011b00002824000840f5000030031000202400010
:1011c000848f500001003900eeff37000082680074
:1011d000810f50001b0031000408a30005003200fd
:1011e000150037000200e000320032000201e90081
:1011f000b15978000308a300faff3a00030378000e
:10120000820278000102780002003700b4197800e9
:101210000281e900e10f5100fcff3e0061816200a4
:101220000500a100850143008582400002003700cf
:10123000b55978000201e9000200e000fcff3a0025
:10124000000006000408a30018003a00060037005a
:101250000200e000170032000201e90082014000b4
:101260000282400094497800820140000308a300f4
:10127000f7ff3a0082017800040037000281e9009c
:101280000202400082824000150a7800e10f5100fe
:10129000faff3e0061816100040037000201e900ad
:1012a0008201400002824000944978000200e00080
:1012b000faff3a0000000600889fbe008a9fbe0029
:1012c000800478000200e0005b00320001407800fa
:1012d000814c780082814400f1f99f00e20f5100b7
:1012e0005500360091449800a1449800e1f99f0010
:1012f000d1f99f00e60f51004f003600b14498002d
:10130000c1f99f00e80f51004b0036000905ea00c3
:10131000630565000a8444000a055100c1ff2f00df
:10132000010565000080fb008000eb00121020002a
:1013300013102000450e0700008cbe000a01440077
:1013400060b99f0071b99f00e80f55003a00360060
:10135000200498003104980040049800510498003b
:1013600020b99f0031b99f0040b99f0051b99f003b
:10137000f80f5500300036006004980071049800a2
:10138000000c9800110c9800200c9800310c98006b
:10139000400c9800510c980020b19f0031b19f0083
:1013a00040b19f0051b19f0060b19f0071b19f009b
:1013b00000b99f0011b99f006401640078014100e9
:1013c00002044400020555006011b8000203be008b
:1013d0000002be000403be006022b80000007200dc
:1013e0008180720002017300838173001000370056
:1013f000009cbe000294be00400498005104980076
:101400006204980073049800000c9800110c980076
:10141000220c9800330c9800400c9800510c980056
:10142000620c9800730c98000a02b1000802b00028
:10143000ff0f5500eeff3e00090078004f05be008b
:101440004f04be000000060021c981009100780011
:10145000a2050700110020000000e0000500350093
:1014600020c9810090007800a0002000cc05070072
:10147000cf00de000100ea000000060000000600c8
:10148000808e230000000600c20b070030c78900d1
:1014900020c789000000060000000600a09223007b
:1014a000000006007d0c070040c9890030c9890092
:1014b0000000060080007800040037003104e000de
:1014c00002003a000000510000000600010178000f
:1014d0000108a300f9ff3a0081017800310178008a
:1014e000f4ef2f00020242000281ea0002016200d2
:1014f0000408280004016100f7ff3200830078002f
:10150000010178003104e000fdff3a0000005100c5
:10151000000006000200fa00881f7800000478002e
:10152000e2bf9f0064815700080078009b04070019
:10153000980090000148a300010032000080eb00f9
:101540004f0478000080fa000000060001017800d6
:101550008000780020c9810010007800edff37007e
:10156000ec874700889fbe008a9fbe008c9fbe000c
:101570008e1f78000006780001047800180790009c
:101580002805900098067800cdb79f00b805900018
:101590003202be002203be000400be000601be00ef
:1015a0004f18de006011b8008000eb00d0b79f003c
:1015b000e1b79f00f2b79f0083bf9f0080047800cf
:1015c0000900e000060032006000b8006011b800b9
:1015d0000402500085825800060359008783590091
:1015e0000e00e000020035000d10a100cdb79f00f5
:1015f0000900e00005003a004fb097000028a30062
:1016000002003a000038a300020032008a00e9001c
:10161000010037008a007800f8815700a2002000fe
:1016200008007800890007000900e00003003a0084
:10163000cfb097000128a300080032000000e900a5
:1016400000814500b1c2b3000900e0000100320092
:10165000d1c2b30001497800060037000138a30069
:10166000040032000000e9008080450002c2b3009f
:1016700082487800480190000201e9000001510011
:10168000808045004fb297008a0178000c007800f6
:10169000800207009c0090000188a3000400320033
:1016a00098009000810f500001003d00010078007b
:1016b0004f0778004f06be004f05be004f04be0026
:1016c000cf00b100000006000200fa00889fbe00b3
:1016d0008a9fbe008005780001047800020078002f
:1016e000180190002805900098007800b1bf9f0075
:1016f000b80490000200e000020035000110a100d3
:10170000b1bf9f00ea815700820020008a00780064
:101710003002be002003be00080078004b00070026
:101720003fb99700f0006100040032000000e900ba
:101730008080440002c3b300824878003fb997001c
:10174000e8006100040032000000e90080804400ed
:1017500002c2b30082487800480190000201e9000b
:1017600000015100808044003fba97008a01780050
:101770000b007800470207009b0090000188a3003f
:101780000400320098009000810f500001003d00dd
:10179000010078004f05be004f04be000080fa0033
:1017a00000000600ea874700889fbe008a9fbe00af
:1017b0008e1f7800000478000300780072875700bd
:1017c00084e2260055c72600049fbe00c39622006f
:1017d000030f78006c875700004feb001105900055
:1017e000a1049000910578000200e00002003200a0
:1017f0000207780001003700728757000000e00000
:1018000002003a000e0078002aff07000a00e000fc
:10181000030035008a0f5000010036000a007800ee
:101820000b02780089017800000178008e007800b2
:1018300008007800170207004f0778004f05be0028
:101840004f04be00af00b10000000600f48747005f
:10185000889fbe008a9fbe008c9fbe008e1f7800ae
:101860000605be000404be0081bf9f0082b79f0032
:10187000f3b79f00b0009000e1b79f00130178001c
:1018800092b79f0090069000400090000000e90091
:10189000000678000d00e00001003d001d00200062
:1018a000efb19700008041000048eb001e002000cf
:1018b0001f0037000c06e9000fb09700cf80de0054
:1018c0006109b900a0b79f00b1b79f00c2b79f00e0
:1018d000d3b79f000203be000002be000800be0096
:1018e0000a01be00a00f070000077800efb09700c4
:1018f0000c80400003c3b300034847008d06e90095
:101900000fb897000000e90080bf9f002fb297003a
:10191000bfb297004fb39700dfb397000800be0037
:101920000a01be00890f07000205be000004be00c8
:101930000c00e0000d003400e00f5400e08f5c006c
:10194000e00f5d00e08f5d00daff3a000d00e0007f
:10195000d8ff3c008fb897000100e000030034007e
:101960001fb197000218a300d2ff3a000e00e0005a
:1019700002003a00ffb197001340a1000c0078006c
:101980004f0778004f06be004f05be004f04be0053
:101990004f01b100000006000200fa00889fbe005f
:1019a0008a9fbe00000578000104780002007800dc
:1019b00018019000a804900098007800b1bf9f0023
:1019c000b80590000200e000020035000110a100ff
:1019d000b1bf9f00ea815700a20020008900780073
:1019e0003002be002003be000800780097ff070009
:1019f000480190000201e90000015100808045008b
:101a00003fba9700890178000a007800a101070019
:101a10009a0090000188a300040032009800900012
:101a2000810f500001003d00010078004f05be000d
:101a30004f04be000080fa0000000600fa8747004d
:101a4000889fbe008a9fbe008c9fbe008e1f7800bc
:101a50008004780001047800820578001801900065
:101a60002805900018077800b80090000200e000f8
:101a7000020035000e10a100010037001200200006
:101a800070006700e0b79f00090032003b02be0013
:101a90002b03be00e00f5200e08f5a00e00f5b0006
:101aa000e08f5b00020032008a86e9000100370007
:101ab0008a067800e8026700f5b79f00010032004f
:101ac0008d06e9003b02be002b03be00e4af9f0081
:101ad000f5af9f0086b79f0097b79f00480690001c
:101ae0000c06e9000c8040000048eb00efb29700c4
:101af0007fb297008903780081047800d8af9f00f7
:101b0000020478008bbf9f008a05780003457800a7
:101b10002b0037000c06e9006fab97006f006300e5
:101b2000e90f500002003c000003b0000100370044
:101b30007005b0000a03fb001604b100f90f530052
:101b40000c003e00000378000650a0001606b1000d
:101b5000f90f530007003e00b4b79f00a5b79f00e0
:101b6000c7b79f0020040700cfb39700afb297001c
:101b70003fb297000c834400004b78000804e90052
:101b80008d06e9006fa89700ffa897000fb1970096
:101b90009fb19700460020008301d1000281d3004d
:101ba0008180d3000080d3000603e900faff3a00e9
:101bb000e0af9f00f1af9f0082b79f0093b79f00f7
:101bc000e10f56000f0034006fa89700ffa89700a0
:101bd0000fb197009fb19700e00f5000e08f5800c1
:101be000e00f5900e08f5900caff3a000800e000fa
:101bf000c8ff3c000d00e000020034000e18a300f6
:101c0000c4ff3a0089007800f4b79f008704780089
:101c10005fac97008a4178000b0578008fbd970074
:101c20000500e000120032003b02be002b03be00a4
:101c3000e4af9f00f5af9f0086b79f0097b79f0066
:101c4000e00f5200e08f5a00e00f5b00e08f5b0076
:101c5000070032000c06e9000c80400003487800c1
:101c60000c06e9000c80400002c3b3000248780073
:101c7000ffb297000500e000040032000c06e90006
:101c80000c80400002c2b300024878004801900076
:101c90000201e9000c0151008c8040000e02780026
:101ca0008a01780009007800fa0007009900900086
:101cb0000188a3000400320098009000810f5000ba
:101cc00001003d00010078004f0778004f06be007c
:101cd0004f05be004f04be00af01b100000006007a
:101ce0000200fa00881f780000047800e2bf9f001d
:101cf0006481570008007800a8020700980090004f
:101d00000148a300010032000080eb004f0478007e
:101d10000080fa00000006008201780001017800ce
:101d2000f1ff27005c093700889fbe00000478009f
:101d30004800900082047800808f54000100360033
:101d40008004780009017800580090000dfd07001c
:101d5000580090000900400050049800c80090000e
:101d600089845000490498000048eb004f04be00ed
:101d700000000600100078001cfc37009001900065
:101d80000388a30001003200e7ff37000348a300e7
:101d900001003a00d80a070000000600881f7800fa
:101da0000004780000082000808f500017003500e4
:101db00010082000808f50000b00340030082000f5
:101dc000808f500011003a00920078006880500027
:101dd000000978003002be002003be00049cbe0053
:101de0000694be000700370092027800648052001b
:101df000000978001000be00340b0700009cbe00f4
:101e00000294be0010002000010037000000eb002b
:101e10004f0478000000060084082000848f5000e2
:101e20001d0032000d003c0014082000848f50007b
:101e30002700320002003c000408200004003700a4
:101e400024082000848f5000340032004408200011
:101e5000848f500043003a0036003700040a200007
:101e6000848f50002700320004003c000409200049
:101e7000848f50003b003a0028003700020c2000fd
:101e8000828f50002f003200020f2000828f5000fe
:101e900034003a002b0037009380e9000200e00094
:101ea00005003200810978001102fb00cfa2de009c
:101eb000612bb900280037008109780011427800b1
:101ec0000482fb008002eb006033b8002200370080
:101ed00013027800e40052000200e0000500320026
:101ee000810978001102be004fabde008603780046
:101ef00019003700810978001102be006033b80074
:101f0000150037009380e9008109780011027800fc
:101f1000cfa2de00612bb9000f00370093027800da
:101f2000e8805200810978003102be002103be0022
:101f3000090037009380e9000200e000020032004f
:101f4000f1ff37009380e9008109780011027800e1
:101f50008002eb006033b8000498be000690be001b
:101f6000100005000000050044082000848f500088
:101f70002500320008003c0014082000848f500027
:101f80001400320024082000848f50002400320006
:101f9000040820000c00370004092000848f500042
:101fa0001f00320004003c0084082000848f500091
:101fb00024003a000e003700040a2000848f5000ed
:101fc00011003200040c2000848f50001d003a00e4
:101fd0000d0037009380e9008109780091007800b6
:101fe00001087800cf91de008288be00140037001f
:101ff0009380e90081097800910078000108780059
:10200000824878000e0037009380e900810978004b
:1020100091007800010878008208780008003700f5
:102020009380e90081097800910078000108780028
:102030006112b900612bb9008498be008690be0081
:102040001000050000000500889fbe000004780015
:102050004800900082047800808f54000100360010
:1020600080047800090178005800900045fc0700c2
:10207000580090000900400050049800c8009000eb
:1020800089845000490498000048eb004f04be00ca
:1020900000000600f2874700889fbe008a9fbe00ae
:1020a0008c9fbe008e1f78008004780001057800a8
:1020b00002047800830578006107620002003a009c
:1020c0008b0f540008003900080178008a0078005e
:1020d0000900780029ff07008b0f54000200390027
:1020e000880578001e003700088655000c0178002e
:1020f000f00f56000100360002012000010220000e
:102100007e8057006cfc07008c06780005003700c5
:1021100002012000fe8057000900780017ff070029
:10212000f0865600ef8f5600f9ff3e004461de0056
:1021300000ff2f008091b9000c014100fe80570084
:10214000090078000dff07000e00e00004003a00cf
:10215000080178008a0078000900780007ff07006e
:102160000b0078004f0778004f06be004f05be00f9
:102170004f04be002f01b100000006000000050062
:102180000000050000000500000178000040eb00a1
:102190008080fb0081804000a3a223008181410058
:1021a000134278000404e00004003a00b0a22300c7
:1021b0008100400011407800000006009201780084
:1021c000934f520005003a00b0a223008100400066
:1021d000114078000309e800010037000040e800e2
:1021e000ea4f5000eaff360000000600f68747007d
:1021f000889fbe008a9fbe008c9fbe008e1f780005
:102200000005780001047800830578000406780052
:102210000000eb00c0b79f008080eb00d1b79f00ab
:10222000e0b79f00f2b79f000008200080bf9f002a
:1022300098007800010078008004eb00010037006e
:102240008904e800304178000204e0000300320015
:1022500053c2b300834f5100f9ff3a000900e00078
:1022600004003200090178000a007800c3fe07006c
:10227000188c44001807780050c2b3009e4f10001d
:102280003f013a000e07e8000e0c780010003700fe
:10229000cfb097000100a0000b003700cfb097002f
:1022a0000110a00008003700cfb097000120a00067
:1022b00005003700cfb097000130a00002003700c2
:1022c000cfb097000140a000c1b79f00000ce8000c
:1022d0001800780090407800b2c2b30082cf50005e
:1022e000f1ff320007003c0002c2b30082cf500071
:1022f000f0ff320032c2b30082cf500007003a0034
:10230000efff3700d2c2b30082cf5000e0ff3200af
:1023100002c3b30082cf5000e0ff3200a2c2b3007c
:1023200082cf50000d003a00000ce8001c80e9004c
:10233000000e780010007800e0b79f000000e00079
:102340000f003d00cfb097000100a200c1b79f0071
:102350000000ea00e0b79f0009003700b90107005c
:10236000e0b79f0001003700000ce800180078007b
:102370009000fb000103b100e98f5000faff360026
:102380004fb097000008a300020032000010a10027
:10239000c0b79f0018007800e1c2b30090cf1000d2
:1023a00016003a008000eb00d1b79f000000e80063
:1023b000000c7800a1c2b30090cf100006003a00d4
:1023c000000ce8001c80e900000e78001000780086
:1023d000d0b79f00090037009a010700d0b79f00cf
:1023e00001003700000ce800180078009000fb00a6
:1023f0000103b100e98f5000faff360008007800b1
:1024000061ff070080467800180078001000fb008c
:10241000ee01070091062000810f500038003200c5
:1024200012003c0041062000810f500034003200b1
:102430000a003c0011062000810f500020003200ed
:1024400031062000810f5000a00032005102200010
:10245000810f5000bc003a00b40037007106200024
:10246000810f5000b8003c008800370001072000b1
:10247000810f50005c00320007003c00e1062000a4
:10248000810f50007a003200f1062000810f5000c9
:10249000ad003a003900370051072000810f50008d
:1024a0002700320081072000810f500042003200d7
:1024b00031072000810f5000a3003a008f00370041
:1024c0008d80fb000c01780000fe2f000f00400003
:1024d00032fe07000000e000a8003200180078007b
:1024e000000ce8009041780002fe2f000f0141002f
:1024f000f88057000a007800c40107000e0037007a
:102500008d80fb008c0178001200200000fe2f005f
:102510000f00400040fe07000000e000970032007e
:10252000180ce80002fe2f000f014100f880570050
:102530000a0078000afc07008084440090003700fd
:102540008d80fb008c0178000001eb0000fe2f0065
:102550000f00400030fe07000000e000870032005e
:10256000180ce80002fe2f000f014100f880570010
:102570000a00780008fd0700efff37008d80fb00a0
:102580008c0178000001eb0000fe2f000f004000de
:1025900021fe07000000e00078003200180ce8007f
:1025a00002fe2f000f014100f88057000a0078005a
:1025b00045fc0700e0ff37008d80fb008c017800b0
:1025c0000001eb0000fe2f000f00400012fe07008c
:1025d0000000e0006900320018007800000ce800fc
:1025e000904178001c0037008c0178000001eb005e
:1025f000010f200000fe2f000f00400006fe070024
:102600000000e0005d003200180ce8000fb09700f9
:102610009fb097002fb19700bfb19700e00f500017
:10262000e08f5800e00f5900e08f590009003a0090
:10263000cfb597006fb4970020a223009dfb070041
:102640000b027800880178000001780021a22300a5
:102650004700370083c7b30002fe2f000f0141007f
:10266000f88057000a007800f4fc0700b2ff37003a
:102670000b8144008d80fb008c01780000fe2f0050
:102680000f00400038fe07003c0037008d80fb0043
:102690000c01780000fe2f000f004000bffd070076
:1026a0000000e0003500320018007800000ce8005f
:1026b0009041780002fe2f000f014100f880570082
:1026c0000a007800e80307009bff370000c8b3004a
:1026d00080cf560029003a00180ce8001c80e90061
:1026e000000e780010407800e0df9f00130020000b
:1026f000e2fd2f000f0141000800370000c8b300c1
:1027000080cf56001d003a00180ce8001c80e9003c
:10271000000e78008001eb0010017800f88057006f
:102720000a0078001ffc070083ff370000c8b300d1
:1027300080cf560011003a00180ce8004fb2970005
:10274000efb19700080037000e0c78000000eb0096
:10275000c0b79f00e0b79f000080eb00d0b79f009c
:102760000002eb00840178001200200081a2230007
:102770000a00780047fe07006fff3700180ce800da
:10278000090078004f0778004f06be004f05be00d5
:102790004f04be006f01b100000006008200fa0085
:1027a000889fbe008a1f78000005780082047800a8
:1027b000c13f9f000004eb001000370009027800c1
:1027c00088017800a2f72f000f01410081f72f0048
:1027d0008f8040000a00780084fe07000800400057
:1027e000880f500004003d00b0042000d0d38900c1
:1027f0000084eb0004003700000478004f38970095
:102800001004e000edff3a00080078004f05780062
:102810004f04be000080fa0000000600889fbe0042
:102820000004be000000eb000800e00018003200c9
:10283000180090000058a3000d003200d80090004e
:1028400068009000808f500009003600b8099000a1
:102850000001eb008200780008007800030001000e
:10286000d80090000080eb000100e000080032007a
:102870000000eb00200c98006004980050049800c1
:102880000900e00002003200180078002cf907006f
:102890004f04be0000000600889fbe000004be007a
:1028a0000000eb000800e000250032001800900056
:1028b0000058a30011003200d8009000680090007a
:1028c000808f500009003600b80990000001eb002d
:1028d000820078000800780003000100d800900012
:1028e0000080eb000100e000150032000000eb006a
:1028f000200c98006004980050049800780a90001a
:1029000008109000800f52000600310000025200b3
:1029100011002000cfa2de00612bb9001800780062
:10292000820007000000eb0000149800700c980073
:102930000900e000020032001800780000f90700ea
:102940004f04be0000000600881f780000047800d5
:10295000486090008040e90000c07000406498002a
:10296000d800900068009000808f5000050036006d
:10297000b80990000001eb008200780008007800a0
:10298000030001000000eb00200c98006004980098
:1029900050049800980090000118a3000300320032
:1029a0000140a000110498000800370028019000a1
:1029b000380090000000410000149800700c98004e
:1029c0000000eb000138a300010032000080eb00a2
:1029d0004f0478000000060072063700c0609000c7
:1029e0000141e900814071004160980010019000b0
:1029f000e4006100040032000240a00012009800d0
:102a00000080eb000000060001109800710898009b
:102a100000000500f00720007a0007008000780021
:102a20001000200002022000828f500004003200bb
:102a3000e9805000e48f5000010036000000eb00f8
:102a400000000600889fbe008a1f780000057800fd
:102a50000a047800984478000805e8000900fb00a3
:102a6000eeff07000000e000f9ff3a00b0c2b3003b
:102a700080cf540005003200d0c2b3008000eb00cc
:102a800080cf540005003a00020037008000eb00c0
:102a900001003700110020000804e8000000eb00ee
:102aa00003003700ea00b900020050000003b00044
:102ab0003801fb0003fd2f0082814100e98f5100a6
:102ac000f8ff36000100e00001003a000000ea00d3
:102ad0004f0578004f04be0000000600889fbe002e
:102ae0008a1f7800800478000105780009007800ca
:102af00070fa0700000478008a0178000801780065
:102b000011002000090078007af9070080007800a1
:102b10000080eb00888f500001003a000000eb00bd
:102b20004f0578004f04be0000000600a0fd2f00f6
:102b3000f1ff2f001b0007004f89de0082017800a3
:102b4000000006000200fa0081017800e0ff9f000b
:102b5000930090000188a30005003200d30090008c
:102b6000805878000080fb00d10198000a003700ef
:102b7000120020008f80e900030078005e07070044
:102b8000800078000080eb000100e00002003200cd
:102b9000eff897000180fb000080fa0000000600bb
:102ba000e205370002002f00f3ff2f00820f5000d4
:102bb000838f5800040036000000ea00d0d389005b
:102bc0000080eb008080eb0000000600f1fb2f008e
:102bd00080804000f98f500001003e000050a000ae
:102be00000000600f9ff3700f1f92f008080400057
:102bf000f98f500001003e00f005b2000000060011
:102c0000f9ff3700fff7070000000600ef03b000f0
:102c1000889fbe008a9fbe008c9fbe008e1f7800da
:102c2000c09f9f008346780011007800f0a79f00a6
:102c300091019000f39f9f0021029000d4a79f0074
:102c4000c1029000b59f9f00310790003204be0082
:102c50002205be00d8b79f00e9b79f00fab79f00d2
:102c60008bbf9f006022b8006033b8000800be0030
:102c70000a01be008b0707000000e0000b003d00ca
:102c80005fb09700efb097007fb197008fb99700c2
:102c900003f0a200d0b79f00e1b79f00f2b79f00fa
:102ca00083bf9f00d0c2b30004003700ffa097008d
:102cb0000128a30008003200b0c2b300004f780022
:102cc0005fa197000201e900e2a79f001300200026
:102cd00083af9f000f0037007fa297000438a30046
:102ce0000800320000c2b300004f7800dfa2970056
:102cf0008502e900e5a79f001600200086af9f002f
:102d000004003700dfa39700e7a79f000004eb0053
:102d100088af9f005fb09700efb097007fb197003a
:102d20008fb99700b8ff0700f4ff2f00f5ff2f00c1
:102d3000f6ff2f00f7ff2700040260008582600085
:102d400006036100878361006000b8000200200074
:102d500003ff27000020e10001a8e10002b0e1002c
:102d600003b8e1000b003a008d06fb001d04b10022
:102d70008fac97000900470001a42300f98f56008b
:102d80000100360041a42300a006070040a4230050
:102d9000230237000020e10001a8e10002b0e100b9
:102da00003b8e1000b0036008d06fb001d04b100e6
:102db0000fad97000a00470081a42300f98f560049
:102dc00001003600c1a4230090060700c0a4230020
:102dd000130237008fad97000b00470001c3b3000b
:102de000014878000b00e800000147008d00fb005f
:102df000f3fb2f0083814000d39f9f0081c7b30066
:102e0000f98f510001003e0081c5b30001497800ef
:102e10000000e80080af9f006022b8006033b80077
:102e20005fb09700efb097007fb197008fb9970020
:102e30001c0707000000e0005e0032000002eb000b
:102e40006044b8000a0020000bff230098a79f00f1
:102e5000a9a79f00baa79f00cba79f0004067800f0
:102e6000050037000c06e8001fac9700afac9700d8
:102e70003fad9700cfad97000802be000a03be0029
:102e80000800be000a01be007c0707000002be0069
:102e90000203be0094af9f00a5af9f00b6af9f0096
:102ea000c7af9f005fb09700efb097007fb197006a
:102eb0008fb99700fb0607000000e000e9ff3d0026
:102ec0009caf9f002a0037006022b8000600200057
:102ed00007fe23000800be000a01be0061080700cb
:102ee0006022b8006033b800ee0607000000e00082
:102ef00016003a006022b8000600200007352400c2
:102f00000800be000a01be00560807000004be000b
:102f10000205be006022b80006002000073524002c
:102f20005fb09700efb097007fb197008fb997001f
:102f30004c0807000002be000203be00d4b79f0089
:102f4000e5b79f00f6b79f0087bf9f006022b800db
:102f50000600200007fe23000800be000a01be0094
:102f6000400807000004be000205be000c06e90090
:102f70000802be000a03be005fb09700efb09700e2
:102f80007fb197008fb99700c60607000000e000e8
:102f9000cdff35000800be000a01be0090a79f00cb
:102fa000a1a79f00b2a79f00c3a79f009caf9f004f
:102fb000090037008000eb0091af9f006022b8004d
:102fc0000600200007ff230094a79f00a5a79f00ed
:102fd000b6a79f00c7a79f00ff9a97008001200017
:102fe0000500e000010035007f9897000000e80030
:102ff000e09f9f001fa49700afa497003fa59700f4
:10300000cfa5970098b79f00a9b79f00bab79f00b8
:10301000cbb79f005fb49700efb497007fb59700e0
:103020008fbd97000006eb003a0037001fb29700f3
:10303000afb297003fb39700cfb397000800be0030
:103040000a01be0058070700b20a07000002be00ce
:103050000203be00d4af9f00e5af9f00f6af9f0014
:1030600087b79f00b80607008002780085a79f00f9
:103070001fb29700afb297003fb39700cfb397004e
:103080005fa89700efa897007fa997008fb19700de
:10309000f40707000002be000203be000800be00e5
:1030a0000a01be00ef0607000004be000205be00d4
:1030b0006022b8000600200007fb23001fb0970025
:1030c000afb097003fb19700cfb19700e507070079
:1030d0000002be000203be0094b79f00a5b79f0088
:1030e000b6b79f00c7b79f000c06e800ff9a97008d
:1030f0000500e00007003d006022b8006033b80022
:103100000800be000a01be00660607000000e000dd
:10311000040032006f9b9700860f5600c3ff3500f6
:1031200001003700ec9f9f006022b80006002000dd
:10313000070224001fb09700afb097003fb197007f
:10314000cfb19700c70707000002be000203be0010
:1031500094b79f00a5b79f00b6b79f00c7b79f0061
:103160000800be000a01be004e0607000000e00095
:103170000d0035001fb29700afb297003fb3970024
:10318000cfb397000800be000a01be004506070045
:103190000000e00011003a008fa297000508a3008c
:1031a000080032000d0037006044b8006055b800d8
:1031b00098b79f00a9b79f00bab79f00cbb79f00f1
:1031c000060037006000b8006011b80090b79f009b
:1031d000a1b79f00b2b79f00c3b79f001fb297006f
:1031e000afb297003fb39700cfb397005fb097009f
:1031f000efb097007fb197008fb997009f06070047
:103200000002be000203be0094b79f00a5b79f0056
:10321000b6b79f00c7b79f007bfe07000203be0042
:103220000002be00f0ff2f00f1ff2f00f2ff2f0081
:10323000f3ff27000004620081846200020563003e
:1032400083856300d8b79f00e9b79f00fab79f0056
:103250008bbf9f006000b8000200200003ff270022
:103260000040e10001c8e10002d0e10003d8e10024
:10327000bdfe3200efa497008984e900d9b79f0012
:103280000fae97008006eb008da79f00ddaf9f007b
:103290006c0037001fa29700afa297003fa39700d2
:1032a000cfa397001fb09700afb097003fb1970032
:1032b000cfb19700bc060700160a07000004be0045
:1032c0000205be0020060700800078000100e00033
:1032d00006003a005fa897000000e00003003200fb
:1032e0008d06e800eda79f00300037000fa1970082
:1032f0000200e0000c003a00dfa997000300e000a4
:10330000090032000c014700e0c2b3000049780018
:103310000c06e8005fb297000402e900d4b79f00f2
:103320001500200085a79f000c0147000d007800c4
:103330000300370003c3b300035978000000e9001d
:103340000000e000fbff3a00e0a79f000d064600ea
:10335000e98f500003003c00000320000100400002
:10336000020037007005200001004000df9b97003d
:10337000f98f530006003e00800078000150a00045
:103380001106b100f98f500001003e0016fe070043
:103390008c004700804878000c06e8008d86ea0023
:1033a0005fb097000d004000d0b79f001fa29700ac
:1033b000afa297003fa39700cfa397000800be00dd
:1033c0000a01be00270707000002be000203be007c
:1033d0001fb09700afb097003fb19700cfb19700f3
:1033e000200607000002be000203be0094b79f0043
:1033f000a5b79f00b6b79f00c7b79f006022b8006f
:103400000600200007fb23001fa09700afa0970035
:103410003fa19700cfa19700120707000004be004c
:103420000205be0098a79f00a9a79f00baa79f000a
:10343000cba79f00dfac97008904e900d9af9f00bc
:10344000efa697005fad97000a00ea00ef9d970096
:103450008b0f500004003d00bf989700658050001e
:10346000800f56008bff39000fa197000200e0008b
:103470001b003a000d00e00076003400ff99970031
:103480000300e000730034007fa297000408a3004b
:1034900070003a008c004700e0c2b300804878001a
:1034a0000d00780002c3b300826878000000e900d4
:1034b000fcff3a000c8646000c06e800dfb29700dd
:1034c0000500e9000d005000d0b79f000400370050
:1034d0000c004700e1c2b300014878000c06e80088
:1034e0000c0047000048eb003f9b97008600e90076
:1034f000010147000049eb008001eb009fab970002
:103500000700e00003003d008703ea0097af9f003b
:1035100013002000120020001faa97000104780069
:103520005fb39700800678000a0037000104780036
:1035300088034700a5002000050009000502d80007
:103540000002be0009c3b30089cb42000201e900ba
:103550000603e9008800e9000400e000f3ff3a00f8
:10356000e10f5100f1ff3200d6b79f000d00780047
:1035700001024700b2c2b3000300e00001003200c4
:10358000d2c2b300024a78000101e900820047007c
:1035900003c7b3005f9d9700f90f550001003e007f
:1035a00003c5b30083487800820f560001003d0038
:1035b00096040700ffa5970063806500e20f5000a6
:1035c00016003a005fb097000084e9004240a9006d
:1035d000120034000e007800b6f7070080004400a7
:1035e0008100e80081004700030037000001470028
:1035f000926078000000e9000fa99700820f500048
:10360000faff3d0002004700080178000103200096
:1036100029f707008001eb00d3a79f000e00780078
:10362000a4f707007fa29700dfa1970000017800b0
:103630008e0078004f98970096fa07004f077800a1
:103640004f06be004f05be004f04be00ef03b100a1
:10365000000006007fa297000448a3009cff3a00e8
:103660009fff3700000006002f04b000889fbe00b7
:103670008a9fbe008c9fbe008e1f7800b09f9f0067
:10368000a1a79f00a37f9f0011007800d0a79f00f3
:1036900091009000f1a79f00afa19700a3019000b7
:1036a000c3a79f002fa2970044029000a49f9f00f1
:1036b000afa29700350790003204be002205be007d
:1036c0006022b8006033b8000800be000a01be00e6
:1036d000f40407000000e00003003d000bf0a2002e
:1036e000d0c2b300040037005fa397000628a300f0
:1036f00008003200b0c2b300004f7800cfa397009b
:103700008703e90087af9f0010002000e0a79f001b
:103710000f003700dfa097000138a3000800320037
:1037200000c2b300004f78004fa197000201e900ea
:1037300082af9f0013002000e3a79f000400370022
:103740004fa2970084af9f008002eb00e5a79f0087
:103750000800be000a01be00c2ff0700f4ff2f00f0
:10376000f5ff2f00f6ff2f00f7ff2700040260008f
:103770008582600006036100878361006000b800f5
:103780000200200003ff27000020e10001a8e10063
:1037900002b0e10003b8e10010003a002f7b97006f
:1037a0008600fb001104b100efa39700070047005b
:1037b000f98f500002003e0001a5230001003700f0
:1037c00041a523001104070040a5230039f7070095
:1037d000efa0970001014000140037000020e10035
:1037e00001a8e10002b0e10003b8e10012003600d8
:1037f0002f7997008200fb001104b100efa1970020
:1038000003004700f98f500002003e0081a523000d
:1038100001003700c1a52300fc030700c0a5230059
:1038200024f707006fa29700040140005fa29700f1
:10383000cfa19700490237006022b8006033b8007a
:103840000800be000a01be00960407000000e00068
:10385000680032006000b8000200200003ff23006f
:10386000d0af9f00e1af9f00f2af9f0083b79f00f2
:103870008006eb000802be000a03be0094b79f005a
:10388000a5b79f00b6b79f00c7b79f0007003700d6
:103890008d06e8000800be000a01be00d0af9f0000
:1038a000e1af9f00f2af9f0083b79f006022b80096
:1038b00006002000470224005fa89700efa89700a9
:1038c0007fa997008fb19700e60507000004be00ae
:1038d0000205be000002be000203be001fb097003a
:1038e000afb097003fb19700cfb197006d040700cc
:1038f0000000e000e6ff3d000006eb005fac970033
:10390000efac97007fad97008fb59700250037008b
:1039100040ed2f00808f560019003d000c00e000a4
:1039200016003a006022b800060020000735240087
:103930001fb09700afb097003fb19700cfb197008d
:10394000c80507000002be000203be0094b79f0036
:10395000a5b79f00b6b79f00c7b79f006022b80009
:1039600006002000073524000800be000a01be0042
:10397000bc0507000004be000205be001c002000bc
:103980006022b80006002000470224000800be00a4
:103990000a01be00040507000004be000205be00c7
:1039a0008d06e9000802be000a03be001fb09700a2
:1039b000afb097003fb19700cfb19700390407002f
:1039c0000000e000d2ff35000800be000a01be0082
:1039d000d0af9f00e1af9f00f2af9f0083b79f0081
:1039e0001fb49700afb497003fb59700cfb59700cd
:1039f000080037006022b8000600200007ff2300ff
:103a0000d4af9f00e5af9f00f6af9f0087b79f0040
:103a10008006eb00af7a97000500fb006bfc070007
:103a2000b07f9f007fa39700600020000600e000a9
:103a3000010035007fa0970071c6b300bf7b9700df
:103a400081cf53000a003a00ffa097000100e00078
:103a5000cb013200cb0137008d0f5000cf013c006d
:103a600090b79f0052c6b300e2cf9f001e00370000
:103a7000bf799700e3cf9f000200370064c6b30010
:103a8000e4cf9f000000e80090b79f0060c6b3003d
:103a9000efca970080cf520013003a000d00e000fb
:103aa00008003d006000b8000200200003ff230072
:103ab000d0af9f00e1af9f00f2af9f0083b79f00a0
:103ac0008006eb0061c6b300e1cf9f0070c6b30073
:103ad0003f799700804f5100030032009fb197005b
:103ae0008d81410093b79f005faa9700efaa9700ce
:103af0007fab97008fb39700d4b79f00e5b79f00c7
:103b0000f6b79f0087bf9f000800be000a01be00f5
:103b100090af9f00a1af9f00b2af9f00c3af9f00c7
:103b20000006eb000802be000a03be00e49f9f00ef
:103b3000f59f9f0086a79f0097a79f003100370041
:103b40005fb29700efb297007fb397008fbb9700eb
:103b50001fa89700afa897003fa99700cfa997008b
:103b600091040700eb0707000004be000205be0039
:103b7000f503070080027800b5a79f005fb29700a9
:103b8000efb297007fb397008fbb97000800be008d
:103b90000a01be00330507001faa9700afaa9700cd
:103ba0003fab9700cfab97002e0407000002be008a
:103bb0000203be0007f0a20094af9f00a5af9f00d4
:103bc000b6af9f00c7af9f006022b800060020007c
:103bd000470224005fb09700efb097007fb19700d5
:103be0008fb99700700407000002be000203be00f8
:103bf000d4b79f00e5b79f00f6b79f0087bf9f002f
:103c00000c06e8009fb29700850f5600ccff3500e8
:103c10006f9c9700ff9c97000fa597009fa59700aa
:103c20006022b80006002000470124005fb0970022
:103c3000efb097007fb197008fb997000905070093
:103c40000002be000203be00d4b79f00e5b79f008c
:103c5000f6b79f0087bf9f001fa89700afa89700e7
:103c60003fa99700cfa997008e0307000000e0004e
:103c70000f0035005fb29700efb297007fb3970057
:103c80008fbb97001fa89700afa897003fa9970088
:103c9000cfa99700830307000000e00011003a005d
:103ca000bfa297000508a300080032000d003700ee
:103cb0006000b8006011b800d0b79f00e1b79f0066
:103cc000f2b79f0083bf9f00060037006022b80054
:103cd0006033b800d4b79f00e5b79f00f6b79f00e8
:103ce00087bf9f005fb29700efb297007fb3970046
:103cf0008fbb97000800be000a01be00df0307006b
:103d00000002be000203be0094af9f00a5af9f005b
:103d1000b6af9f00c7af9f006022b800060020002a
:103d2000470224005fa89700efa897007fa997009b
:103d30008fb19700cb0407000004be000205be004f
:103d40000002be000203be001fa89700afa89700a4
:103d50003fa99700cfa99700570307000000e00094
:103d6000090035008d06e80060c6b300efca970071
:103d700080cf520008003a001fb397000603e80006
:103d800096b79f00110037005fac9700efac97002b
:103d90007fad97008fb5970050c6b3006fc99700ed
:103da000804f510009003a000802be000a03be001d
:103db000d4b79f00e5b79f00f6b79f0087bf9f006d
:103dc0008002eb00d5af9f00070037000800be005f
:103dd0000a01be00d0b79f00e1b79f00f2b79f0075
:103de00083bf9f00ddaf9f006fa697000001eb002f
:103df000b2a79f00c29f9f00e29f9f009d9f9f00d0
:103e0000680037005fb29700efb297007fb397006a
:103e10008fbb97001fa89700afa897003fa99700f6
:103e2000cfa99700e00307003a0707000004be008f
:103e30000205be0044030700e90f500001003400f2
:103e400090002000dfa197000348a3000c003a0077
:103e50000000e0000a003a0071c6b3003f7a970004
:103e6000814f520006003a00dfaa97000500e000eb
:103e700003003d003fa397008606e80021003700bd
:103e8000cf9b97000700e0000c003a00dfa89700e6
:103e90000100e00009003d000c014700e1c2b30051
:103ea000014978000c06e8000fa997000201e9001b
:103eb00082af9f0013002000c39f9f000c014700aa
:103ec000bfa697000300370001c3b3000159780073
:103ed0008d06e9000d00e000fbff3a003fa29700cd
:103ee000040646008c00470005c3b3008548400027
:103ef0000c06e8000480ea000fab970000034300c3
:103f000086af9f005fb29700efb297007fb3970034
:103f10008fbb97000800be000a01be0051040700d5
:103f20001faa9700afaa97003fab9700cfab9700af
:103f30004c0307000002be000203be0007f0a2000f
:103f400094af9f00a5af9f00b6af9f00c7af9f0083
:103f50006022b80006002000470224005fb09700ee
:103f6000efb097007fb197008fb997008e030700dd
:103f70000002be000203be00d4b79f00e5b79f0059
:103f8000f6b79f0087bf9f00dfaa97008502e90070
:103f9000d5af9f006f9b97000603e800e69f9f0048
:103fa000bda79f00ef9b97001fb09700808f530025
:103fb00005003d00afa09700410090006500500053
:103fc000800f56008fff39009f9e97004f999700f2
:103fd0000200e00007003a00dfa197000348a300b9
:103fe000040032000c004700e1c2b3000148780031
:103ff0000c06e8000c0047000048eb0051c6b30077
:104000006fca9700814f520036003a00af9a97006e
:104010008500e900010147000049eb008001eb0049
:104020000d00e00002003d008d06ea0013002000b4
:1040300022002000810378008faa970000047800f6
:104040000b0037008103780007034700a40020001d
:10405000050009008406d800010278008006780077
:1040600000c3b300004b42000201e9008502e900f1
:104070008700e9000d00e000f2ff3a000200e000d6
:10408000f0ff3c0085af9f00080078000102470068
:10409000b2c2b3000300e00001003200d2c2b3009c
:1040a000024a78000101e90082004700af799700d9
:1040b0000302fb001404b10053c6b300f90f520011
:1040c00001003e0053c4b300834878000faa970054
:1040d0000482e90084af9f00820f560001003d007a
:1040e000ca010700dfa2970063806200e20f500060
:1040f00015003a000fab97000600e00012003400f4
:104100000e007800ebf40700060037008fab970035
:1041100087004700808040000001470092487800f7
:104120000000e900efa09700810f5000f7ff3d006d
:10413000010047000fa99700010320005ef407006b
:104140000001eb00c2a79f000e007800d9f4070021
:104150005fa29700cfa19700000178008e00780041
:104160003f989700cbf707004f0778004f06be0037
:104170004f05be004f04be002f04b1000000060032
:1041800010002000e48f460033fe3d0090b79f00f2
:1041900053c6b300e3cf9f0053fe37000d00e0008d
:1041a00036fe350090b79f0046fe3700881f780026
:1041b000404420003b010700000478000800e000b4
:1041c00013003200c20320008000eb0008007800da
:1041d00039f40700a0eb2000300c9800a02c22003e
:1041e000400c9800c044210070049800601e22001a
:1041f0001014980000c0eb00205c980040042000e0
:10420000080040002004980000402000300498007e
:10421000080078004f04780000000600889fbe0068
:104220008a9fbe00100290008002eb000418a300d9
:1042300003003a00801290007009900082825200c0
:10424000d001900060019000028451000884420077
:10425000cfc4de00614db9008898be008a90be00d0
:104260000000eb000468a3000400320010002000ee
:10427000828f510001003e000000eb004f05be00a0
:104280004f04be00000006000000060085f4070091
:104290007df40700fcff3700f28747008e1f78008f
:1042a00002027800030178000000e0000200320002
:1042b0000007780001003700728757008002eb008a
:1042c0000100e000010032008102e9007080570027
:1042d000060009000018eb000080eb0080bf9f0083
:1042e0002310200093bf9f00aebf9f00b1bf9f006f
:1042f000c5bf9f000100e00003003d00b1042000a5
:10430000d1d3890006003700004feb00eebf9f00bd
:10431000debf9f00840078007080570070f60700b1
:104320004f0778002f01b10000000600010178005e
:10433000920090000158a30003003a008200780028
:1043400000fa07000f0037008080fb00a2599000a0
:104350008301fb00838f500007003200d2019000e0
:10436000220a9000848f51000300310080597800a8
:1043700053019800040037008000780002007800a4
:10438000630107008000780001007800000006004b
:1043900000000600609623000000060000000600f2
:1043a00000000500fdff0700e0d381008000eb0066
:1043b0001d01070030c981008000eb001a010700d1
:1043c00020c781008000eb00170137000800fa00c9
:1043d000889fbe008a1f78000004780001057800dd
:1043e0008204780038009000a80090009abf9f00d7
:1043f0000001780002f0a7000201ea000201ea00d1
:104400004f11de0002815400a2bf9f00b1bf9f0088
:10441000c0bf9f0022002000ee80570018007800e7
:10442000e30007000000e00006003c00f800600028
:104430000130a200180190008280700011049800e1
:10444000110037002fb99700820f50000e00360080
:10445000a8009000710c98000200500000804000fd
:1044600000149800380090000000e00007003200bf
:104470000905450001007800b040780071fd9f00fb
:10448000700c980001003700800478000900780063
:104490004f0578004f04be000080fa0000000600bf
:1044a000881f780000047800180078009ff9070042
:1044b0000203be000002be00f0ff2f00f1ff2f003c
:1044c0000001be00e00f5200e08f5a00e00f5b00d9
:1044d000e08f5b0005003500180090000030a1005f
:1044e000100498006000b8006011b8004f04780014
:1044f000000006000800fa00889fbe008a1f7800ae
:104500000004be00180090000058a3001b003200f9
:10451000d800900068009000808f50001300360093
:10452000b80990000001eb008200780008007800d4
:1045300094bf9f00a5bf9f00b6bf9f00c7bf9f004d
:104540000300010058059000f0ff2f00f1ff2f003d
:104550000001be001fba9700afba97003fbb97009b
:10456000cfbb97000a00e000060032000000eb001d
:10457000200c980060049800500498000800be00c9
:10458000c7ff07004f0578004f04be000080fa0007
:10459000000006000800fa00889fbe008a1f78000d
:1045a0000004be00e18f540008003a00881090001b
:1045b0007808900000805000cf80de00000252009a
:1045c00081825a0001035b0081835b001800900028
:1045d0000058a3001b003200d80090006800900033
:1045e000808f500013003600b80990000001eb00e6
:1045f000820078000800780094bf9f00a5bf9f004c
:10460000b6bf9f00c7bf9f00030001005805900080
:10461000f0ff2f00f1ff2f000001be001fba97002e
:10462000afba97003fbb9700cfbb97000a00e000ee
:10463000150032000000eb00200c98006004980088
:10464000500498000800be0095ff07000203be005a
:104650000002be00f0ff2f00f1ff2f000001be009e
:10466000e00f5200e08f5a00e00f5b00e08f5b002c
:10467000050035000000eb0000149800700c980055
:104680006000b8006011b8004f0578004f04be000c
:104690000080fa000000060000000600209a2300b7
:1046a000000006000200fa00889fbe000000e00043
:1046b00001003a00100020000004e8000800a100fa
:1046c000b0d381000000e8000000a100b0d3890051
:1046d000000020000000e0000f003200e10f540055
:1046e00006003600e20f440005003a00c00020003a
:1046f000d0d389000000eb002a00370028002000fa
:10470000080078003eee0700290020000000e000cd
:1047100024003a00010037008004eb00b0d3810090
:10472000a1d3810000805000800f54001300360098
:1047300008804400d0bf9f0066805700ab00070090
:10474000800078000000eb000100e000150032005e
:104750000100e8000000a100a1d38100810f5000fa
:1047600001003200b0d38900dfb89700010040009b
:104770000000e8000000a100a0d38900b1d38100af
:104780000900e000030032000100780008187800fa
:104790000100370001007800088444008880400050
:1047a000b1d389004f04be000080fa00000006006b
:1047b000889fbe008a9fbe008c1f7800000678008c
:1047c00082057800010478008004eb000905780078
:1047d0000700370018019000980078000c0078005e
:1047e00010f10700808444000a05e80064044400d6
:1047f0008b0f5500f7ff3500090078004f06780051
:104800004f05be004f04be0000000600881f780060
:1048100000047800080078007e0007000800780097
:104820004f047800000006008001eb000000e0006b
:1048300005003200700190000200e000020032002a
:1048400002000100800178000300780000000600eb
:104850006000b8006011b80000000600881f7800f2
:10486000c00120008fff0700000478000800e0006e
:104870000a003200c20120008000eb00080078002e
:104880008df20700a0eb2000300c9800a02722003a
:10489000400c980000c0eb00205c980008007800f5
:1048a0004f0478000000060040fe370040099000e9
:1048b00002040100d00190006001900002825100ca
:1048c000cfa2de00612bb9008498be008690be00a6
:1048d000900090000000eb000168a300040032008b
:1048e00010002000828f510001003e000000eb000c
:1048f0000000060049fe3700b00990000300e00008
:1049000001003200030401001000780037f1370085
:104910000200fa00881f780000047800c1ff9f00a1
:10492000280890000000e00006003a000800780027
:1049300020000700800078000080eb000100e0000c
:1049400018003a00d800900028089000808f50008e
:10495000090031004ff997000280fb00a859900030
:104960008301fb00830f500003003200825878005f
:10497000510498000b003700b80990001200200085
:10498000e4805700080078000300010080007800f0
:104990000080eb00e18f500002003a00cff8970052
:1049a0000180fb004f0478000080fa000000060040
:1049b00000000500881f78000004780008007800d7
:1049c00006f807000000e00006003a00a80090008a
:1049d00061049800510498003801900082804000e2
:1049e000210c98004f047800000006009000780029
:1049f0000000eb000100e000050035000100780038
:104a0000d8f00700e10f400001003a000000eb0081
:104a10000000060001017800800178000082680033
:104a20000408a3000500320013003700324078006c
:104a3000805978000004e00014003200030278007e
:104a40000208a300f9ff3a000300780001003700d4
:104a50000318780082007800b2017800f5ef2f008b
:104a6000838242000382ea00048262000508280073
:104a700005026200f6ff3200000278003141780042
:104a8000025878000204e000fbff3a0004007800be
:104a90000000060000c0da000000060000c0da00d6
:104aa000000006008f1fd100910307008f87e900e7
:104ab0000000e00000000600809feb008c03070070
:104ac0008f87e9000000e000000006008103780005
:104ad000490007000001be006000b8000478a30090
:104ae00013003a006220e10015003e000d0039007d
:104af0008301d1000281d3008180d3008301d100e2
:104b00000281d3008180d3008301d1000281d300d0
:104b10008180d3000538b000c42add00f300b20064
:104b20008381720007f0a70003f0a00000000600d8
:104b300083ff2700020020006110b900f9ff370051
:104b400003ff2700f7ff37001400fa00889fbe001c
:104b50008a9fbe008c9fbe000004be000205be00fe
:104b6000680047000a90be000890be009b03070043
:104b70000070a7000bf0a100304320009e029000bf
:104b800080825200b0fe2f000028e10011003d009d
:104b9000b0fc2f000028e100150034001e09900031
:104ba0008e0890007e0090000501b0000201d10047
:104bb0008180d3000080d3008502e800fbff3a002b
:104bc0000b00e000c0033b0060001000e080180014
:104bd000bd033700f0ff2f00f1ff27000b00e000be
:104be000b9033b000100280000002000b603370095
:104bf0006000b800b4033700c70ade00f107b20056
:104c0000f50fb20008003200e1cf4200020032008e
:104c10000170a00024000500810f70000100320027
:104c20000408050044000500810f700002003a00ee
:104c3000140005008502e9000000400081c0480022
:104c4000fcff3b000170a00024000500020ab9002f
:104c5000001bb9000200b80081004200810043003f
:104c6000000006008c9fbe008a9fbe00889fbe0089
:104c7000ca0107000bf0a200040037008c9fbe00a1
:104c80008a9fbe00889fbe00c40107000c48e10057
:104c90000b003a000c40e100020032008b010700db
:104ca000400037008b066d003e0032000af0a10084
:104cb000f3012000f2ff2f006110b9003900370026
:104cc0000c40e100370032000940e10001003600ed
:104cd0007e0107008a856d00cf5dde000b05750043
:104ce0000006eb008804fd00890454000100320036
:104cf0007d0107000a04e00011003a000800e0000e
:104d00002800320004004000858048000601490068
:104d1000878149000358a300180032008301d100a5
:104d20000281d3008180d3000080d3000c86d300a1
:104d300001003900610676000804e8001800370019
:104d400004005000858058000601590087815900f1
:104d5000060031000af0a2000c06ea00600018000c
:104d6000e080180060011900e081190003003a009a
:104d70000004eb000005eb000a0037000348a30025
:104d800007003a000c0646000000480081804800f9
:104d900002014900838149000804e900f7ff370058
:104da000af013700c90137008c9fbe008a9fbe004b
:104db000889fbe00790107000b056d000940e100e6
:104dc0000a003a000800e000020032000c40e10056
:104dd00006003a000af0a1000c047800f30120005c
:104de000f2ff2f006110b9009d0037000c40e10078
:104df0009b0032000800e000990032000c48e100fe
:104e000002003a000004eb00030037000900e00054
:104e100004003a000c0478006000b8006011b8008b
:104e20008f0037000348a30006003a00000040004e
:104e30008180480002014900838149000804e9009b
:104e4000f8ff37000748a30006003a0004024200ba
:104e500085824a0006034b0087834b008904e900e2
:104e6000f8ff3700fd3f20008d84540009045400f2
:104e70008a1f7800881f7800000478008104780079
:104e800002057800830578006000b8006011b80062
:104e90000d042000050037000804440089844c00fc
:104ea0000a054d008b854d000800310004045400b4
:104eb00085845c0006055d0087855d008381d200e6
:104ec0008d06d300f4ff3b000700370004044400c4
:104ed00085844c0006054d0087854d008381d200f6
:104ee0008d06d300ecff3b000804440089844c008d
:104ef0000a054d008b854d00080031000404540064
:104f000085845c0006055d0087855d000281d20016
:104f10008d06d300f4ff3b00070037000404440073
:104f200085844c0006054d0087854d000281d20026
:104f30008d06d300ecff3b000804440089844c003c
:104f40000a054d008b854d00080031000404540013
:104f500085845c0006055d0087855d008180d20048
:104f60008d06d300f4ff3b00070037000404440023
:104f700085844c0006054d0087854d008180d20058
:104f80008d06d300ecff3b000804440089844c00ec
:104f90000a054d008b854d000800310004045400c3
:104fa00085845c0006055d0087855d000080d20079
:104fb0008d06d300f4ff3b000700370004044400d3
:104fc00085844c0006054d0087854d000080d20089
:104fd0008d06d300ecff3b000b00e00004003d0019
:104fe0000404440085844c0006054d0087854d006f
:104ff0000006eb008301d1000281d3008180d30041
:105000000080d3000c86d3008301d1000281d3003d
:105010008180d3000080d3000c86d3008904740003
:105020008b0575008b8474000100320061067600e8
:105030004f0478004f0578000348a30007003a00aa
:105040000c0646000000480081804800020149002b
:10505000838149000804e900f7ff370000013700a9
:105060001a0137008c9fbe008a9fbe00889fbe0039
:10507000ca0007000b056d008a0578000c40e100ae
:1050800008003a000900e00082003a000af0a1009e
:105090000c047800f3012000f2ff2f006110b9002a
:1050a0007c0037000c48e10004003a00870007004c
:1050b0000900e00077003a00f4ff37000800e00044
:1050c000740032000900e00002003a007f0007008f
:1050d00070003700ed3f20008d8454000904440027
:1050e0008a1f7800881f7800871f7800861f780045
:1050f000851f7800841f7800cb19dd00c515de0000
:105100008b8571004b11dd00450dde000a05710035
:10511000cb08dd00c504de00898470004b04dd008f
:105120000440b8000546b8008c80400060814e0005
:10513000044eb8008c8040000d0149008001eb0056
:105140000318ad000456b8000c0141008d814900e0
:105150000002eb000420ad000646b8000c0141003f
:105160008d81490060024a00054eb8000c014100e3
:105170008d81490060024a000556b8008c814100cb
:105180000d024a008002eb000528ad000746b8007a
:105190008c8141000d024a00e0824a00064eb800b0
:1051a0008c8141000d024a00e0824a004f067800df
:1051b0000c5eb8008c8141000d024a00e0824a007a
:1051c0000656b8000c0242008d824a000003eb0034
:1051d0000630ad00074eb8000c0242008d824a0036
:1051e00060034b004f0678000c5eb8000c024200d2
:1051f0008d824a0060034b000756b8008c82420043
:105200000d034b008003eb000738ad004f0678001c
:105210000c5eb8008c8242000d034b00e0834b0013
:105220004f0678000c5eb8000c0343008d834b00e2
:105230004f0478004f0578000748a3000a003a00a1
:10524000000040008180480002014900838149003c
:1052500004024a0085824a0006034b0087834b0004
:105260000804e900f4ff370003067800808070002e
:1052700082807000010032006106760087017800ac
:105280000601780085007800040078008804780022
:10529000780037008d0037008c06460002003a0087
:1052a0000000a6000000060060004800e080480002
:1052b00060014900e08149000350a600000006009b
:1052c0008301d1000804e800000006000002fd0090
:1052d0008102fd000203fd008303fd008804fd0040
:1052e0008a05fd00000006007048e1001a00390040
:1052f0007d0320000d48e1000a003900810570009f
:10530000830671008c8575008d8575000006eb00a5
:105310001cd8e700610676006000b8006011b80094
:10532000000006007048e1000b0039008c05780091
:105330000006780001007800820078000301780000
:105340008001eb0013d8e70061067600f08454007a
:10535000f4ff3a00000006006160e1000c48ad0077
:10536000f08514008b06dd000966de000d06760070
:105370008b0edd000900de000d0070008b16dd00d5
:105380008908de008d8070008b1edd000911de00b3
:105390000d0171008919de00000006000d002800d3
:1053a000fc7f20000d856100441cde00ef81610060
:1053b0000c046400010032000340a0008d856300ee
:1053c000c43cde00ef8363008c8464000100320083
:1053d0000740a0000c40e10006003a00ef866100a3
:1053e0008286760081867600808676000100320013
:1053f000180037000c48e10007003a00ef86630010
:1054000086867600858676008486760002003200e5
:10541000aeff07000f0037000348a30005003a0065
:105420008106700082867600838676000100320055
:105430000804e8000748a30005003a00850672004a
:105440008686760087867600010032008904e800af
:1054500000000600cf047800cf0578001b0037005d
:10546000000278008102780002037800830378004c
:10547000880478000cf0a70087ff0700fd7f20005c
:105480000d40e100040035000d0478006000b80014
:105490006011b8000d0037000800e0000b003c0070
:1054a0000400780085007800060178008701780004
:1054b000e18414008cff07000cf0a70076ff0700c2
:1054c0000004eb000340a7000804e8004444dd00aa
:1054d0006fc56100880175004f04be004f05be0016
:1054e0004f06be0000000600889fbe008a9fbe00d7
:1054f00030044200b0844a0030054b0090854b00d8
:105500006000b1000898be000a90be000440e100af
:1055100005c8e10006d0e10007d8e1000200310033
:10552000680040001008e8004f05be004f04be00b0
:1055300000000600889fbe008a9fbe003004be00a7
:105540002005be000418540005985c0006185d0094
:1055500007985d00110020000440e10005c8e1004b
:1055600006d0e10007d8e100010039008000eb001f
:10557000108810004f05be004f04be00000006005a
:105580001200fa00889fbe008a9fbe008c9fbe005a
:10559000e0b79f00f1b79f0082bf9f0093bf9f00bd
:1055a0000605be000404be000000eb00d0b79f005b
:1055b000c0b79f00b0b79f00a0b79f0090b79f00f3
:1055c000000678005fb19700cfb0970082014100dc
:1055d0003fb097000200e00004003d0037000700e4
:1055e0007e805700c0ff070003003700330007002c
:1055f0007e805700cfff0700dfb697000d00e00068
:105600000c0035006fb29700ffb297000fbb9700f8
:105610009fbb970010002000010020006011b8001f
:1056200000027200818272000203730083837300a0
:105630001b0007000c06e80001042000810f560043
:10564000e0ff3a000d00e00004003d000802be004b
:105650000a03be007e805700a3ff07005fa89700e3
:105660000000e00005003a001fb29700afb29700bb
:105670003fb39700cfb39700090007006fb09700c2
:10568000ffb097000fb997009fb997004f06be0073
:105690004f05be004f04be000080fa000000060067
:1056a0000100070000000600a4b79f00b5b79f00e7
:1056b000c6b79f00d7b79f00000006004f09de0065
:1056c00082817100b3b79f004f01de0081804000ee
:1056d00082807000a1b79f008fb097004f09de0055
:1056e000000040000200700090b79f007fa8970064
:1056f0004f01de00818040008280700081b79f00f2
:105700000d0007004f3ade0000004000040070006a
:10571000f0af9f00080007000402420085824a00a3
:1057200006034b0087834b00dfff07000802be0023
:105730000a03be00000006002fb29700bfb2970018
:105740004fb39700dfb3970000000600881f780072
:1057500018002000881f780089ff07008f87e90064
:105760004f04780000000600801feb0084ff070054
:105770008f87e90000000600889fbe008a9fbe0058
:10578000e00f5000e08f5800e00f5900e08f590003
:105790000c003d006044b8006055b80000005400a3
:1057a00081805c0002015d0083815d0018002000a3
:1057b0001500070008003d00180007000004eb007a
:1057c000050037000004eb000f00070002003d0059
:1057d0001200070018002000dcff07000800e000ae
:1057e000060032006022b8006033b80000005200aa
:1057f00081805a0002015b0083815b004f05be007f
:105800004f04be0000000600e00f5200e08f5a0077
:10581000e00f5b00e08f5b00000006006044b80012
:105820006055b8000402540085825c0006035d00e8
:1058300087835d0000000600889fbe008a9fbe002f
:105840008c1f7800e00f5000e08f5800e00f5900e7
:10585000e08f59000d003d006044b8006055b8006d
:105860000000540081805c0002015d0083815d00c6
:105870001c0020000820e10009a8e1000ab0e100b6
:105880000bb8e1000d003d00080037000006eb00fa
:10589000e00f5200e08f5a00e00f5b00e08f5b00ea
:1058a00006003d006044b8006055b8000402540092
:1058b00085825c0006035d0087835d00aaff070008
:1058c0000c00e000060032006022b8006033b8002f
:1058d0000000520081805a0002015b0083815b005e
:1058e0004f0678004f05be004f04be0000000600c2
:1058f000889fbe008a9fbe008c9fbe000404be002d
:105900000605be00809fbe00829fbe0021000700ea
:10591000040678000800be000a01be001d00070052
:10592000840678004f03be004f02be008d4f760004
:105930007fb0970013003300f0ff2f008b8f6b00b8
:1059400006003b000d0666000c00a7000a003700a9
:1059500007f0a600100020000a003700880f520050
:10596000898f5a008a0f5b008b8f5b000300390020
:105970001000200001003e000000200007f0a700fa
:105980000000ea004f06be004f05be004f04be00f7
:105990000000060005ff27000582610007003200b5
:1059a0000428e10001003200240005000600070081
:1059b00001003a0044000500040805000200070049
:1059c000f9ff3a00140005006f8261008102700047
:1059d00085027100850272000000060080007800d8
:1059e0005002be005003be004439de00f700b20092
:1059f000f37f200003016100090032000218e1007a
:105a000016003a00850172008301730083817300e0
:105a10000008200015003a00400020001300370065
:105a200085017200830173008381730005003a00d1
:105a300004a8be0006a8be00100020000b0037001e
:105a40000201e9000402420085824a0006034b007d
:105a500087834b000748a300f9ff32000740a000ee
:105a600004a8be0006a8be00200020008000980008
:105a70009200980000000600680447000294be00ef
:105a80000094be00fc0447008694be008494be00cf
:105a900009007800d1ff070008007800cfff070059
:105aa00099007800814f70000b003b000800be0099
:105ab0000a0007004f00b10003003700f3ff270082
:105ac000f2ff2f006110b9004f06be004f05be0067
